:100000000C943E000C945B000C945B000C945B0021
:100010000C945B000C945B000C945B000C945B00F4
:100020000C945B000C945B000C945B000C945B00E4
:100030000C945B000C945B000C945B000C945B00D4
:100040000C945B000C945B000C945B000C945B00C4
:100050000C945B000C945B000C945B000C945B00B4
:100060000C945B000C945B000C945B000C945B00A4
:100070000C945B000C945B000C945B0011241FBE7D
:10008000CFEFD8E0DEBFCDBF11E0A0E0B1E0EAE500
:10009000F2E002C005900D92A030B107D9F711E04F
:1000A000A0E0B1E001C01D92A230B107E1F70E94CB
:1000B000B6000C942C010C940000CF93DF93CDB7C5
:1000C000DEB7E6EBF0E08FE38083E1EAF0E0108258
:1000D000E0EAF0E089E18083E3EAF0E01082E2EA1E
:1000E000F0E08BE48083E5EAF0E01082E4EAF0E0FF
:1000F00088E28083E7EAF0E01082E6EAF0E08EE64C
:100100008083E9EAF0E01082E8EAF0E080E58083AD
:10011000EBEAF0E01082EAEAF0E083E78083EDEAC0
:10012000F0E01082ECEAF0E08CE38083EFEAF0E0AC
:100130001082EEEAF0E080E58083E1EBF0E01082EF
:10014000E0EBF0E08AE58083E3EBF0E01082E2EBA5
:10015000F0E08DE78083E5EBF0E08CE18083E7EB76
:10016000F0E081E28083DF91CF910895CF93DF9318
:10017000CDB7DEB7E9E4F0E086E08083E9E4F0E0C3
:1001800080819927817090700097C1F30E945D0073
:1001900081E08093000181E08093010111C0E6EBD2
:1001A000F0E080910001808380910001880F8093AE
:1001B00000010E94FD00809101018F5F8093010189
:1001C00080910101873058F3E6EBF0E085E1808310
:1001D0000E94FD00E6EBF0E08AE280830E94FD00D1
:1001E000E6EBF0E083E380830E94FD00E6EBF0E0C5
:1001F0008CE080830E94FD00CBCFCF93DF93CDB7FF
:10020000DEB724970FB6F894DEBF0FBECDBF80E0F7
:1002100090E0A3E0B0E089839A83AB83BC830BC0FA
:1002200089819A81AB81BC810197A109B109898338
:100230009A83AB83BC8389819A81AB81BC8100970F
:10024000A105B10569F724960FB6F894DEBF0FBE7D
:0A025000CDBFDF91CF910895FFCFDD
:00000001FF
