:100000000C943E000C945B000C945B000C945B0021
:100010000C945B000C945B000C945D000C945B00F2
:100020000C945B000C945B000C945B000C945B00E4
:100030000C945B000C945B000C945B000C945B00D4
:100040000C945B000C945B000C945B000C945B00C4
:100050000C945B000C945B000C945B000C945B00B4
:100060000C945B000C945B000C945B000C945B00A4
:100070000C945B000C945B000C945B0011241FBE7D
:10008000CFEFD8E0DEBFCDBF11E0A0E0B1E0ECE6FD
:10009000F1E002C005900D92A030B107D9F711E050
:1000A000A0E0B1E001C01D92A030B107E1F70E94CD
:1000B000AB000C94B5000C9400001F920F920FB689
:1000C0000F9211248F9384E089B98F910F900FBE06
:1000D0000F901F9018958FE38093B6001092A100A7
:1000E0008AEF8093A00052E05093A3008EEE80939D
:1000F000A20041E04093A50080E98093A40024E0A1
:100100002093A7008CE48093A60093E09093A9002D
:1001100030E23093A8002093AB008EE78093AA00D2
:100120005093AD0088E58093AC009093AF0030937E
:10013000AE009093B10084E88093B0002093B300A8
:1001400082EE8093B2008CE18093B5004093BB00B7
:100150004093B700089586E089BD09B400FEFDCF45
:0C0160000E946B00529A7894FFCFFFCFF2
:00000001FF
