:100000000C943E000C9450000C9450000C94500042
:100010000C9450000C9450000C9450000C94500020
:100020000C9450000C9450000C9450000C94500010
:100030000C9450000C9450000C9450000C94500000
:100040000C9450000C9450000C9450000C945000F0
:100050000C9450000C9450000C9450000C945000E0
:100060000C9450000C9450000C9450000C945000D0
:100070000C9450000C9450000C94500011241FBE9E
:10008000CFEFD8E0DEBFCDBF21E0A0E0B1E001C0FE
:100090001D92A230B207E1F70E9403030C944405BD
:1000A0000C940000CF93DF931F92CDB7DEB7898306
:1000B0008AE790E02AE730E0F90120812F7BFC01FC
:1000C00020838981882351F48CE790E02CE730E08D
:1000D000F90120812F732064FC0120838981813004
:1000E00049F48CE790E02CE730E0F9012081206CA6
:1000F000FC01208300000F90DF91CF910895CF93F2
:10010000DF931F92CDB7DEB789838AE790E02AE7B5
:1001100030E0F90120812F7BFC0120838981882335
:1001200059F48CE790E02CE730E0F9012081207E43
:100130002560FC0120830DC08981853051F48CE756
:1001400090E02CE730E0F9012081207E2C60FC015A
:10015000208300000F90DF91CF910895CF93DF931C
:10016000CDB7DEB78EE790E020E2FC01208384E685
:1001700090E024E630E0F90120812E7FFC0120830D
:1001800085E290E025E230E0F90120812B7FFC013F
:1001900020838AE790E0FC0110828AE790E02AE75A
:1001A00030E0F90120812068FC0120838AE790E09B
:1001B0002AE730E0F90120812660FC0120838AE7EC
:1001C00090E02AE730E0F90120812062FC012083E1
:1001D0008BE790E0FC0110828BE790E02BE730E0AA
:1001E000F90120812068FC0120838BE790E02BE758
:1001F00030E0F90120812062FC0120838CE790E04F
:10020000FC01108280E00E94520080E00E947F008A
:100210008CE790E02CE730E0F90120812062FC01BE
:1002200020838AE790E02AE730E0F901208120640A
:10023000FC0120830000DF91CF910895CF93DF93DD
:100240001F92CDB7DEB7198289E790E0FC0180816B
:10025000898389810F90DF91CF910895CF93DF93A8
:10026000CDB7DEB70E9431050000DF91CF91089530
:10027000CF93DF93CDB7DEB70000DF91CF91089524
:10028000CF93DF93CDB7DEB784E690E024E630E08D
:10029000F9012081277FFC01208384E490E022E89B
:1002A000FC01208385E490E022E0FC01208387E4C8
:1002B00090E02FE7FC0120830000DF91CF910895AB
:1002C000CF93DF93CDB7DEB784E290E024E230E055
:1002D000F90120812061FC01208385E290E025E284
:1002E00030E0F90120812061FC01208384E290E06C
:1002F00024E230E0F9012081236CFC01208387E2B5
:1003000090E027E230E0F90120812160FC012083A8
:100310008AE290E02AE230E0F90120812160FC01CC
:10032000208385E290E025E230E0F90120812C7302
:10033000FC01208388E290E028E230E0F90120818E
:100340002C73FC0120838BE290E02BE230E0F9017A
:1003500020812C73FC0120830000DF91CF91089550
:10036000CF93DF931F92CDB7DEB7198289E290E079
:10037000FC018081882F90E082709927892B19F0E9
:1003800089818460898386E290E0FC018081882FE6
:1003900090E082709927892B19F089818260898386
:1003A00089E290E0FC018081882F90E08470992799
:1003B000892B19F089818160898389810F90DF9170
:1003C000CF910895CF93DF93CDB7DEB783E290E06E
:1003D000FC018081882F90E088709927892B11F08B
:1003E00081E001C080E0DF91CF910895CF93DF934A
:1003F00000D0CDB7DEB789836A838981882F90E0EA
:100400008234910509F44FC08334910509F492C0F8
:100410008134910509F0D5C08A81882F90E08C3411
:100420009105D1F08A35910551F18834910509F093
:1004300039C085E290E025E230E0F90120812F7794
:10044000FC0120838BE290E02BE230E0F901208177
:100450002160FC01208326C08BE290E02BE230E09B
:10046000F90120812E7FFC01208385E290E025E2C6
:1004700030E0F90120812068FC01208313C08BE269
:1004800090E02BE230E0F90120812E7FFC012083F7
:1004900085E290E025E230E0F90120812F77FC0130
:1004A000208300008EC08A81882F90E08C349105D3
:1004B000D1F08A35910551F18834910509F039C0A0
:1004C00085E290E025E230E0F90120812F7BFC01FC
:1004D000208388E290E028E230E0F9012081216069
:1004E000FC01208326C088E290E028E230E0F90198
:1004F00020812E7FFC01208385E290E025E230E020
:10050000F90120812064FC01208313C088E290E07F
:1005100028E230E0F90120812E7FFC01208385E272
:1005200090E025E230E0F90120812F7BFC0120835F
:10053000000047C08A81882F90E08C349105D1F06B
:100540008A35910551F18834910509F039C085E269
:1005500090E025E230E0F90120812D7FFC0120832D
:1005600085E290E025E230E0F90120812160FC0184
:10057000208326C085E290E025E230E0F901208169
:100580002E7FFC01208385E290E025E230E0F90136
:1005900020812260FC01208313C085E290E025E2E7
:1005A00030E0F90120812E7FFC01208385E290E07C
:1005B00025E230E0F90120812D7FFC01208300003D
:1005C000000000000F900F90DF91CF910895CF931E
:1005D000DF9300D01F92CDB7DEB789836A834B8348
:1005E000698181E40E94F6016A8182E40E94F60139
:1005F0006B8183E40E94F60100000F900F900F9032
:10060000DF91CF910895CF93DF9300D0CDB7DEB7C0
:100610000E942E010E9438010E9460010E94AE00DB
:100620000E9440010E941E01898386E490E0FC0143
:1006300080818F5F8A83809100019981981739F1B9
:10064000809101018F5F80930101809101018436C7
:10065000F0F010920101809100019981891748F40E
:100660008091000188232CF0809100018F5F80939E
:100670000001809100019981981748F48091000150
:10068000882329F08091000181508093000180919E
:1006900000019A81891730F44AE56AE58AE50E94EB
:1006A000E702C0CF0E94E201882309F043C00E9404
:1006B000B001882F90E08330910519F184309105C5
:1006C00034F48130910549F1029709F12CC085304D
:1006D000910559F08530910574F0069721F54AE5AA
:1006E0006CE488E40E94E70268C048E46AE58CE4B0
:1006F0000E94E70262C048E46CE48AE50E94E702D7
:100700005CC04CE468E48AE50E94E70256C04CE411
:100710006AE588E40E94E70250C04AE568E48CE498
:100720000E94E7024AC04AE56AE58AE50E94E702BC
:10073000000043C00E94B001882F90E083309105F3
:10074000F1F08430910534F48130910561F0029725
:1007500081F02DC085309105F1F085309105ACF028
:100760000697F9F024C04AE56CE488E40E94E702A9
:1007700024C048E46AE58CE40E94E7021EC048E415
:100780006CE48AE50E94E70218C04CE468E48AE55C
:100790000E94E70212C04CE46AE588E40E94E70286
:1007A0000CC04AE568E48CE40E94E70206C04AE512
:1007B0006AE58AE50E94E702000034CFCF93DF9319
:1007C00000D0CDB7DEB789836A838A81882F90E015
:1007D0008130910599F082309105D9F0892B09F08B
:1007E0002FC084E290E024E230E0F9012081322F32
:1007F000298120952323FC01208322C084E290E0FC
:1008000024E230E0F90130812981232BFC0120838F
:1008100017C084E290E024E230E0F9012081322F19
:10082000298120952323FC01208385E290E025E2A5
:1008300030E0F90130812981232BFC012083000065
:1008400000000F900F90DF91CF910895CF93DF9329
:1008500000D0CDB7DEB789836A838A81882F90E084
:100860008130910599F082309105D9F0892B09F0FA
:100870002FC087E290E027E230E0F9012081322F9B
:10088000298120952323FC01208322C087E290E068
:1008900027E230E0F90130812981232BFC012083FC
:1008A00017C087E290E027E230E0F9012081322F83
:1008B000298120952323FC01208388E290E028E20F
:1008C00030E0F90130812981232BFC0120830000D5
:1008D00000000F900F90DF91CF910895CF93DF9399
:1008E00000D0CDB7DEB789836A838A81882F90E0F4
:1008F0008130910599F082309105D9F0892B09F06A
:100900002FC08AE290E02AE230E0F9012081322F04
:10091000298120952323FC01208322C08AE290E0D4
:100920002AE230E0F90130812981232BFC01208368
:1009300017C08AE290E02AE230E0F9012081322FEC
:10094000298120952323FC0120838BE290E02BE278
:1009500030E0F90130812981232BFC012083000044
:1009600000000F900F90DF91CF910895CF93DF9308
:1009700000D0CDB7DEB789836A838A81882F90E063
:100980008130910599F082309105D9F0892B09F0D9
:100990002FC08DE290E02DE230E0F9012081322F6E
:1009A000298120952323FC01208322C08DE290E041
:1009B0002DE230E0F90130812981232BFC012083D5
:1009C00017C08DE290E02DE230E0F9012081322F56
:1009D000298120952323FC0120838EE290E02EE2E2
:1009E00030E0F90130812981232BFC0120830000B4
:1009F00000000F900F90DF91CF910895CF93DF9378
:100A0000CDB7DEB740E060E881E690E00E943D05AA
:100A100083E590E0FC01108285E590E0FC01108206
:100A200080E0DF91CF910895CF93DF93CDB7DEB70C
:100A300084E690E02FE7FC01208362E08FEF0E94C4
:100A4000DE0362E08FEF0E94260462E08FEF0E94D7
:100A50006E0462E087E00E94B6040000DF91CF914F
:100A60000895CF93DF93CDB7DEB70E9414050E949F
:100A7000FE040000DF91CF9108952FB7F894FC0198
:0C0A8000608340832FBF0895F894FFCFDF
:00000001FF
