:100000000C943E000C9448000C9448000C9448005A
:100010000C9448000C9448000C9448000C94480040
:100020000C9448000C9448000C9448000C94480030
:100030000C9448000C9448000C9448000C94480020
:100040000C9448000C9448000C9448000C94480010
:100050000C9448000C9448000C9448000C94480000
:100060000C9448000C9448000C9448000C944800F0
:100070000C9448000C9448000C94480011241FBEB6
:10008000CFEFD0E1DEBFCDBF0E94B0000C941001D5
:100090000C9400000E94EA000895249A2C9A84B1DE
:1000A000836C84B9389A509A85B18C7385B988B1BC
:1000B0008C7388B98BB18C738BB9539A5B9A089502
:1000C000499B02C084E001C080E0319982604A9976
:1000D00081600895823499F0833401F1813461F5AF
:1000E0006C3439F06A3541F0683431F52F98589AFC
:1000F000089558982F9A089558982F9808956C3419
:1001000039F06A3541F06834B9F42E98409A089570
:1001100040982E9A089540982E9808956C3439F09E
:100120006A3541F0683441F42998289A089528984E
:10013000299A0895289829980895CF93DF93D62F68
:10014000C42F682F81E40E946A006D2F82E40E9410
:100150006A006C2F83E40E946A00DF91CF910895BA
:100160000E944A000E944D000E9460008330C1F04E
:1001700028F4813049F0823069F02AC08530E1F0FE
:10018000A8F08630F9F024C04AE56CE488E40E94C7
:100190009D00EACF48E46AE58CE40E949D00E4CF2C
:1001A00048E46CE48AE50E949D00DECF4CE468E4FC
:1001B0008AE50E949D00D8CF4CE46AE588E40E945D
:1001C0009D00D2CF4AE568E48CE40E949D00CCCF2C
:1001D0004B9ACACF8FE78093640084B114B885B17D
:1001E0008FEF85B997B117B898B188B99AB11AB895
:1001F0009BB18BB98DB1887F8DB98EB187608EB977
:1002000040E060E881E690E00E94090113BE15BE5F
:1002100008952FB7F894FC01608340832FBF0895A1
:04022000F894FFCF80
:00000001FF
