S01200004D792050726F6A6563742E7372656355
S11300000C943E000C9448000C9448000C94480056
S11300100C9448000C9448000C9448000C9448003C
S11300200C9448000C9448000C9448000C9448002C
S11300300C9448000C9448000C9448000C9448001C
S11300400C9448000C9448000C9448000C9448000C
S11300500C9448000C9448000C9448000C944800FC
S11300600C9448000C9448000C9448000C944800EC
S11300700C9448000C9448000C94480011241FBEB2
S1130080CFEFD8E0DEBFCDBF0E9424010C949701CE
S11300900C940000EAE7F0E090819F7B908381114B
S11300A007C0ECE7F0E080818F738064808308955B
S11300B0813029F4ECE7F0E08081806C808308953E
S11300C0EAE7F0E090819F7B9083811107C0ECE721
S11300D0F0E08081807E856080830895853031F4EE
S11300E0ECE7F0E08081807E8C60808308950F933C
S11300F01F93CF93DF9380E280937E00E4E6F0E0E9
S113010080818E7F80832A98CAE7D0E01882888114
S113011080688883888186608883888180628883F8
S1130120EBE7F0E0108280818068808380818062C8
S113013080830CE710E0F801108280E00E944A00FE
S113014080E00E946000F801808180628083888161
S113015080648883DF91CF911F910F9108958091DE
S1130160790008950E9471010895E4E6F0E0808129
S1130170877F808382E884BD82E085BD8FE787BD69
S11301800895249A2C9A84B1836C84B9389A509A2D
S113019085B18C7385B988B18C7388B98BB18C7334
S11301A08BB9539A5B9A0895499B02C084E001C0BD
S11301B080E0319982604A9981600895823499F08F
S11301C0833401F1813461F56C3439F06A3541F0DE
S11301D0683431F52F98589A089558982F9A0895AD
S11301E058982F9808956C3439F06A3541F0683482
S11301F0B9F42E98409A089540982E9A08954098FC
S11302002E9808956C3439F06A3541F0683441F41D
S11302102998289A08952898299A08952898299819
S11302200895CF93DF93D62FC42F682F81E40E94C3
S1130230DE006D2F82E40E94DE006C2F83E40E94B6
S1130240DE00DF91CF9108950E94B2000E94C100A8
S11302500E9477000E94B5000E94AF0096B58917EE
S113026030F44AE56AE58AE50E941101F5CF0E945F
S1130270D4008330C1F028F4813049F0823069F031
S11302802AC08530E1F0A8F08630F9F024C04AE5B0
S11302906CE488E40E941101DFCF48E46AE58CE451
S11302A00E941101D9CF48E46CE48AE50E9411014F
S11302B0D3CF4CE468E48AE50E941101CDCF4CE42D
S11302C06AE588E40E941101C7CF4AE568E48CE43A
S11302D00E941101C1CF4AE56AE58AE50E94110135
S11302E0BBCF8FE78093640084B114B885B18FEFDE
S11302F085B997B117B898B188B99AB11AB89BB1B2
S11303008BB98DB1887F8DB98EB187608EB940E08D
S113031060E881E690E00E94900113BE15BE089546
S11303202FB7F894FC01608340832FBF0895F8949D
S1050330FFCFF9
S9030000FC
