S0170000626C64635F73656E736F726C6573732E73726563C8
S11300000C948B000C94A8000C94A8000C94A800E9
S11300100C94A8000C9424030C94A8000C94A8003D
S11300200C94A8000C94A8000C94A8000C94A800AC
S11300300C94B0020C94A8000C94A8000C94A80092
S11300400C94A8000C94BB030C94A8000C94A80076
S11300500C94A8000C94A8000C94A8000C943604EA
S11300600C9470040C94A8000C94A8000C944E03F7
S11300700C94A8000C94A8000C94A800727500734A
S1130080740068656C7000667700627700737300B3
S11300906769006730006731000D3E000D41544D23
S11300A0454C204D6F746F7220436F6E74726F6C89
S11300B020496E74657266616365000D7275203A3D
S11300C02072756E0D7374203A2073746F700D6610
S11300D077203A20666F72776172640D6277203AF6
S11300E0206261636B776172640D7373203A2073CD
S11300F065742073706565640D6769203A206765CF
S11301007420696400556E6B6E6F776E20436F6D5B
S11301106D616E64000011241FBECFEFD8E0DEBF16
S1130120CDBF11E0A0E0B1E0E2EFF5E102C005903F
S11301300D92A430B107D9F711E0A4E0B1E001C0F9
S11301401D92A037B107E1F70E94BA000C94F70A98
S11301500C940000813610F087550895813410F016
S113016087530895805308958A3010F0895C089568
S1130170805D08950E940B050E94B80780E00E94EC
S1130180A6040E9427050E94F60080911A0181307E
S113019029F510921A010E94BF02809104019091E6
S11301A0050101969093050180930401889770F0EE
S11301B0109205011092040180912A01882321F4F0
S11301C00E9405050E94A6040E94C2010E94FA0032
S11301D00E9429020E9429070E940F03809118019E
S11301E0882311F42C9AD1CF2C98CFCF81E080931F
S11301F0070108958091060108951F93182F0E9406
S1130200BC04412F50E0481B590B509311014093FB
S1130210100150931701409316018091120190919F
S11302201301840F951F90931301809312018F3F44
S1130230910539F034F08FEF90E09093130180939F
S11302401201809112019091130181509F4F34F457
S113025081E09FEF9093130180931201209112018A
S113026030911301C901880F991F820F931F909336
S1130270150180931401480F591FCA01AA2797FD3D
S1130280A095BA2F24E0B595A795979587952A95BB
S1130290D1F78F3F9105A105B10514F08FEF06C08A
S11302A0181619061A061B060CF080E01F91089513
S11302B00F931F93082F0E94B90410E0081B110923
S11302C01093090100930801C801880F991FA80120
S11302D0A5E0440F551FAA95E1F7481B590B50930D
S11302E00F0140930E0180910A0190910B01800F40
S11302F0911F9C01F5E0220F331FFA95E1F7880F57
S1130300991F281B390B30930B0120930A012F3FAF
S1130310310539F034F08FEF90E090930B01809326
S11303200A0180910A0190910B0181509F4F34F48E
S113033081E09FEF90930B0180930A0180910C015F
S113034090910D01840F951F9C01442737FD409522
S1130350542F74E055954795379527957A95D1F79D
S11303602F3F31054105510514F08FEF08C01216D7
S113037013061406150614F080E001C0822F1F91A5
S11303800F91089580910701813041F0813018F078
S1130390823091F40BC00E94A90405C00E94A904F4
S11303A0880F0E9458018093060108950E94050554
S11303B00E94FD008093060108951092A1001092FE
S11303C0A0001092A30081E08093A2001092A500E7
S11303D01092A4001092A7001092A6001092A900F7
S11303E08093A8001092AB001092AA001092AD0066
S11303F01092AC001092AF008093AE001092B10046
S11304001092B0001092B3008FEF8093B20084E199
S11304108093B50098E99093B80088EF8093B90071
S11304209093BA008FE08093BC0084E08093BB007B
S113043081E28093B700089529B196B189B184709F
S11304409270892B30E02270307035952795822B7D
S11304500895E5EBF0E094E390831092A10080937B
S1130460A0001092A30091E09093A2001092A50026
S11304708093A4001092A7008093A6001092A90074
S11304809093A8001092AB008093AA001092AD0044
S11304908093AC001092AF009093AE001092B10024
S11304A08093B00084E180830895109280008BE0F3
S11304B08093810010928200109289008FE38093D0
S11304C0880082E080936F00089585B18C7385B9AC
S11304D04098589883EC84B921E027B92AB9249A22
S11304E02C9A83E080937F0080E480937E00809147
S11304F07B008F7B80937B0080917B008062809364
S11305007B0090EC90937C008AE880937A0090932F
S11305107B008DE88093760085E08093900085EAE7
S11305208093920014BC84E085BD20936E000E94E9
S1130530550294EC9093940085E8809395009093F1
S1130540960096E090936C0082E080936B00909309
S1130550680099BD09B400FEFDCF0E94DD01089535
S11305601F920F920FB60F9211248F9381E0809304
S11305701A018F910F900FBE0F901F9018959091B4
S11305801E01913029F1913018F09230D1F506C056
S113059010921F0182E080931E01089580911F0133
S11305A0882379F581E080931F0180931E01809157
S11305B07C00806280937C0080917C00807E8D60D2
S11305C080937C0080917A00806480937A000895FF
S11305D080911F018823A9F490931F0182E08093E6
S11305E01E0180917C008F7D80937C0080917C0033
S11305F0807E8F6080937C0080917A0080648093F9
S11306007A00089584EF91E090931D0180931C017A
S113061081E080931B0188EF8093B9000895809155
S11306201B01813081F480911C0190911D0101977F
S113063090931D0180931C01019629F410921B01D3
S11306408EEF8093B90008951F920F920FB60F9208
S113065011242F933F934F935F936F937F938F93C3
S11306609F93AF93BF93EF93FF9384E08093BC0079
S113067081E0809318010E94A304FF91EF91BF9140
S1130680AF919F918F917F916F915F914F913F9126
S11306902F910F900FBE0F901F9018951F920F92DD
S11306A00FB60F9211242F933F934F935F936F9341
S11306B07F938F939F93AF93BF93EF93FF93809117
S11306C07C00807E826180937C0080911E01813059
S11306D021F4809179000E94080580911E018230E6
S11306E051F43091780020917900922F80E0830FAB
S11306F0911D0E94CD0410921F01FF91EF91BF91B3
S1130700AF919F918F917F916F915F914F913F91A5
S11307102F910F900FBE0F901F9018958091190183
S1130720813041F526B59091200180E0AC01420F63
S1130730511D9A014115510511F421E030E040E0CA
S113074050E065E87FEC80E090E00E94F107C90189
S1130750DA018F3F9105A105B10529F020F08FEF53
S113076090E0A0E0B0E00E94B60416BC1092200114
S11307701092190108951F920F920FB60F9211242F
S11307802F933F934F935F936F937F938F939F9395
S1130790AF93BF93EF93FF9316BC809120018F5FBB
S11307A080932001843658F01092200180E00E944A
S11307B0B6040E94A004882311F00E941705FF913B
S11307C0EF91BF91AF919F918F917F916F915F91C5
S11307D04F913F912F910F900FBE0F901F9018953E
S11307E00F931F93182F0E94B304082F0E94A00494
S11307F0882389F10E94FA000E942902133019F11A
S1130800143028F4113051F0123069F516C0153047
S113081041F0153048F0163031F509C0013049F483
S11308200AC0013061F40DC0013079F410C0013008
S113083011F481E20DC082E10BC0013011F489E0B2
S113084007C086E005C0013011F488E101C084E2EC
S11308508093B60008C01092B6002F982E9829985D
S11308605898409828981F910F9108951F920F92BD
S11308700FB60F9211242F933F934F935F936F936F
S11308807F938F939F93AF93BF93EF93FF9329B17C
S113089096B189B184709270892B30E022703070E7
S11308A035952795822B0E94F003319B05C00E9449
S11308B08E031092190103C081E080931901FF9106
S11308C0EF91BF91AF919F918F917F916F915F91C4
S11308D04F913F912F910F900FBE0F901F9018953D
S11308E01F920F920FB60F9211242F933F934F93A1
S11308F05F936F937F938F939F93AF93BF93EF9384
S1130900FF9329B196B189B184709270892B30E03C
S11309102270307035952795822B0E94F003FF9149
S1130920EF91BF91AF919F918F917F916F915F9163
S11309304F913F912F910F900FBE0F901F901895DC
S11309408091220108951092220108958093230139
S1130950089580912301089510922101089581E062
S113096080932101089580912101089580932401A9
S11309700895809124010895209125013091260144
S1130980409127015091280186E056954795379567
S113099027958A95D1F7C9010895EF92FF920F9395
S11309A01F9376E0880F991F7A95E1F7A0E0B0E0F5
S11309B0E0902501F0902601009127011091280173
S11309C0A801970166E0220F331F441F551F6A9543
S11309D0D1F72E193F09400B510B820F931FA41F0F
S11309E0B51F26E0B695A795979587952A95D1F7D3
S11309F08093250190932601A0932701B0932801A9
S1130A001F910F91FF90EF9008958091290108950F
S1130A108093290108950E9465027894109222011E
S1130A20109221011092230110922401089581E073
S1130A30809322010E94C2010E94FA000E942902AE
S1130A400E941C020E94F0030E94020308958091F8
S1130A50B70080FD02C00E94DD011092180181E000
S1130A60809322010E94C2010E94FA000E9429027E
S1130A700E941C020E94F0030E9402030895EF9258
S1130A80FF920F931F93CF93DF93EC017C012F2DE3
S1130A9022952F701F2D1F7034E0969587953A95F7
S1130AA0E1F7082F0F70222339F0822F0E94B4003F
S1130AB090E00E94E10702C0112339F0812F0E94C7
S1130AC0B40090E00E94E10702C0002331F0802FBF
S1130AD00E94B40090E00E94E1079E012F70822FD3
S1130AE00E94B40090E00E94E107DF91CF911F9132
S1130AF00F91FF90EF900895CF93DF93FC01EC01E9
S1130B00849105C090E00E94E107FE018491219642
S1130B108823C1F7DF91CF91089590912B0140E094
S1130B2001C04F5FE42FF0E0E05BFE4F8081803234
S1130B3011F09417B0F781E080932C01942F915019
S1130B40A0E5B1E020E030E0F901E458FF4FE49182
S1130B508C918E1739F42F5F3F4F921708F4E6C03B
S1130B601196F2CFA0E5B1E020E030E0F901E158C0
S1130B70FF4FE4918C918E1739F42F5F3F4F9217FA
S1130B8008F4D6C01196F2CFA0E5B1E020E030E041
S1130B90F901EE57FF4FE4918C918E1739F42F5FD2
S1130BA03F4F921708F4C6C01196F2CFA0E5B1E00A
S1130BB020E030E0F901E957FF4FE4918C918E1762
S1130BC039F42F5F3F4F921708F4B6C01196F2CF55
S1130BD0A0E5B1E020E030E0F901E657FF4FE491F1
S1130BE08C918E1739F42F5F3F4F921708F4A6C0EB
S1130BF01196F2CFA0E5B1E020E030E0F901E3572F
S1130C00FF4FE4918C918E1739F42F5F3F4F921769
S1130C1008F496C01196F2CFA0E5B1E020E030E0F0
S1130C20F901E057FF4FE4918C918E1739F42F5F4F
S1130C303F4F921708F486C01196F2CFA0E5B1E0B9
S1130C4020E030E0F901ED56FF4FE4918C918E17CE
S1130C5039F42F5F3F4F921708F476C01196F2CF04
S1130C60A0E5B1E020E030E0F901EA56FF4FE4915D
S1130C708C918E1739F42F5F3F4F921708F466C09A
S1130C801196F2CF80912B01882321F085E091E029
S1130C900E947C0589E990E00E947C0510922C0159
S1130CA0089590E00AC0E92FF0E0EE0FFF1FE25D27
S1130CB0FE4F308311829F5F2F5FE22FF0E0E05BF5
S1130CC0FE4F3081303221F080912B01281758F3E8
S1130CD0E92FF0E0EE0FFF1FE25DFE4F108211825C
S1130CE0922F9F5F80912B019817D0F520E00AC0C6
S1130CF0E22FF0E0EE0FFF1FE25CFE4F3083118223
S1130D002F5F9F5FE92FF0E0E05BFE4F30813032D0
S1130D1021F080912B01981758F3E22FF0E0EE0FA9
S1130D20FF1FE25CFE4F10821182089582E00FC023
S1130D3083E00DC081E00BC084E009C085E007C0FA
S1130D4086E005C087E003C088E001C089E08093A5
S1130D502D01242F2F5F80912B01281708F4A1CF98
S1130D600895FF920F931F9310924F0110924E011A
S1130D70FF2416C000914E0110914F0194E0000F22
S1130D80111F9A95E1F710934F0100934E010E94B1
S1130D90AA00080F111D10934F0100934E01F39404
S1130DA0EF2DF0E0EE0FFF1FE25DFE4F8081918199
S1130DB0009701F71F910F91FF9008950E94C707B4
S1130DC0882309F445C00E94EA07982F8830F1F07F
S1130DD08D3019F0833091F50BC0E0912B01F0E0D8
S1130DE0E05BFE4F10820E948D0510922B01089546
S1130DF010922B0100D080E091E0EDB7FEB7928312
S1130E0081830E942E080F900F90089580912B01EA
S1130E10882361F088E090E00E94E10780E290E09E
S1130E200E94E10788E090E00E94E10780912B0195
S1130E30882371F0815080932B01089580912B01B8
S1130E40E82FF0E0E05BFE4F90838F5F80932B01EF
S1130E50089580912C01882319F40E94DE060895D8
S1130E6080912D01853031F1863070F48230C9F0E3
S1130E70833020F4813009F06EC010C08330A1F0BB
S1130E80843009F068C013C0873001F18730A8F0BE
S1130E90883079F1893009F05EC050C08BEB90E066
S1130EA05CC00E9427055BC00E94A30458C00E9436
S1130EB0AC0455C00E94AF0452C00E94B1060E9407
S1130EC0020380914E010E94A60449C083E090E091
S1130ED00E943F0580E290E00E94E10781E090E0FB
S1130EE00E943F0580E290E00E94E10781E090E0EB
S1130EF02FC080912101813011F498E001C090E06D
S1130F0080912201813009F49460892F90E00E943D
S1130F103F0580E290E00E94E1070E94B90490E05E
S1130F200E943F0580E290E00E94E1070E94BC0419
S1130F300E943F0581E080932A0111C08AEE9DE062
S1130F400E943F0580E290E00E94E10783E291E085
S1130F500E943F0504C085E091E00E947C05109248
S1130F602D0110922C0189E990E00E947C050895DE
S1130F700E94CB078CE990E00E947C0589E990E00F
S1130F800E947C0510922C0110922D0108958091ED
S1130F90C90081700895E8ECF0E090818081877F3A
S1130FA0808388E88093CC001092CE0083E3809302
S1130FB0CD0090838FE080838FEF8093D20081E017
S1130FC00895282F8091C90081FFFCCF2093D2007F
S1130FD0822F08958091C90080FFFCCF8091D200B8
S1130FE0089597FB092E05260ED057FD04D014D082
S1130FF00AD0001C38F450954095309521953F4F08
S11310004F4F5F4F0895F6F79095809570956195D1
S11310107F4F8F4F9F4F0895A1E21A2EAA1BBB1B2F
S1131020FD010DC0AA1FBB1FEE1FFF1FA217B307B0
S1131030E407F50720F0A21BB30BE40BF50B661FC6
S1131040771F881F991F1A9469F76095709580958A
S113105090959B01AC01BD01CF010895A0E0B0E0E3
S1131060E4E3F8E00C94D00AFE01359661917191A5
S113107080916C0190916D01AF010E94430820960C
S1131080E2E00C94EC0AABE0B0E0E9E4F8E00C94A4
S1131090C00A3C012B015A01FC011782168283818C
S11310A081FD03C06FEF7FEFC6C19AE0892E1E0158
S11310B00894211C311CF3012381F20123FD859145
S11310C023FF81912F01882309F4B2C1853239F4B9
S11310D023FD859123FF81912F01853229F490E02E
S11310E0B3010E94360AE7CF982FFF24EE249924F7
S11310F0FFE1FF15D0F09B3269F09C3228F4903266
S113110059F0933291F40EC09D3249F0903369F452
S113111041E024C052E0F52A84E0F82A28C098E08F
S1131120F92A25C0E0E1FE2A22C0F7FC29C0892F54
S113113080538A3070F4F6FE05C0989C902C1124DC
S1131140980E15C0E89CE02C1124E80EF0E2FF2A6A
S11311500EC09E3229F4F6FC6BC140E4F42A07C0A9
S11311609C3619F450E8F52A02C0983649F4F20185
S113117023FD959123FF91912F01992309F0B8CF75
S1131180892F8554833018F08052833038F444E03A
S113119050E0A40EB51E5FE359830FC0933631F0BF
S11311A0933779F0933509F056C020C0F50180815A
S11311B0898342E050E0A40EB51E610101E010E015
S11311C012C0F501C080D180F6FC03C06FEF7FEF41
S11311D002C0692D70E042E050E0A40EB51EC601C5
S11311E00E942B0A8C015FE7F52214C0F501C08030
S11311F0D180F6FC03C06FEF7FEF02C0692D70E071
S113120042E050E0A40EB51EC6010E94200A8C01E3
S113121050E8F52AF3FE07C01AC080E290E0B3015B
S11312200E94360AEA948E2D90E008171907A8F355
S11312300EC0F601F7FC8591F7FE81916F0190E0F5
S1131240B3010E94360AE110EA94015010400115DE
S1131250110579F7EAC0943611F0993669F5F7FE6D
S113126008C0F501208131814281538184E090E0FE
S11312700AC0F501808191819C01442737FD409586
S1131280542F82E090E0A80EB91E9FE6F92257FF82
S113129009C050954095309521953F4F4F4F5F4F72
S11312A0E0E8FE2ACA01B901A1012AE030E00E9467
S11312B0620AD82ED21840C0953729F41F2D1F7EFC
S11312C02AE030E01DC01F2D197F9F3661F0903752
S11312D020F4983509F0ACC00FC0903739F0983736
S11312E009F0A6C004C028E030E00AC0106114FD73
S11312F0146020E130E004C014FD166020E132E007
S113130017FF08C0F501608171818281938144E0F7
S113131050E008C0F50180819181BC0180E090E03B
S113132042E050E0A40EB51EA1010E94620AD82E2C
S1131330D2188FE7F82EF122F6FE0BC05EEFF522ED
S1131340D91438F4F4FE07C0F2FC05C08FEEF8227D
S113135002C01D2D01C0192DF4FE0DC0FE01ED0DBE
S1131360F11D8081803319F499EEF92208C01F5FC2
S1131370F2FE05C003C08F2D867809F01F5F0F2D84
S1131380F3FC14C0F0FE0FC01E1510F09D2C0BC012
S11313909D2C9E0C911A1E2D06C080E290E0B30194
S11313A00E94360A1F5F1E15C0F304C01E1510F4F8
S11313B0E11A01C0EE2404FF0FC080E390E0B30102
S11313C00E94360A02FF1DC001FD03C088E790E0B9
S11313D00EC088E590E00BC0802F867891F001FF65
S11313E002C08BE201C080E2F7FC8DE290E0B30121
S11313F00E94360A06C080E390E0B3010E94360AD8
S11314009A94D914C0F3DA94F101ED0DF11D8081A1
S113141090E0B3010E94360ADD20A9F706C080E2FD
S113142090E0B3010E94360AEA94EE20C1F743CE5D
S1131430F30166817781CB012B96E2E10C94DC0AFF
S1131440FC010590615070400110D8F7809590958B
S11314508E0F9F1F0895FC01615070400190011090
S1131460D8F7809590958E0F9F1F08950F931F9323
S1131470CF93DF938C01EB018B8181FF1BC082FF33
S11314800DC02E813F818C819D812817390764F41A
S1131490E881F9810193F983E88306C0E885F98539
S11314A0802F0995892B31F48E819F8101969F832A
S11314B08E8302C00FEF1FEFC801DF91CF911F9100
S11314C00F910895FA01AA27283051F1203181F1B2
S11314D0E8946F936E7F6E5F7F4F8F4F9F4FAF4F38
S11314E0B1E03ED0B4E03CD0670F781F891F9A1F4B
S11314F0A11D680F791F8A1F911DA11D6A0F711DFF
S1131500811D911DA11D20D009F468943F912AE00A
S1131510269F11243019305D3193DEF6CF010895F2
S1131520462F4770405D4193B3E00FD0C9F7F6CF23
S1131530462F4F70405D4A3318F0495D31FD4052EB
S1131540419302D0A9F7EACFB4E0A6959795879581
S113155077956795BA95C9F7009761057105089560
S11315609B01AC010A2E069457954795379527950C
S1131570BA95C9F7620F731F841F951FA01D0895A4
S11315802F923F924F925F926F927F928F929F928F
S1131590AF92BF92CF92DF92EF92FF920F931F937D
S11315A0CF93DF93CDB7DEB7CA1BDB0B0FB6F8942E
S11315B0DEBF0FBECDBF09942A88398848885F846E
S11315C06E847D848C849B84AA84B984C884DF80DF
S11315D0EE80FD800C811B81AA81B981CE0FD11DC3
S11315E00FB6F894DEBF0FBECDBFED010895F89499
S10515F0FFCF27
S10715F20D230000C1
S9030000FC
