:100000000C943E000C945B000C945B000C945B0021
:100010000C945B000C945B000C945B000C945B00F4
:100020000C945B000C945B000C945B000C945B00E4
:100030000C945B000C945B000C944C050C94340500
:100040000C945B000C945B000C945B000C945B00C4
:100050000C945B000C945B000C94D1010C94950102
:100060000C946F010C945B000C945B000C94870063
:100070000C945B000C945B000C945B0011241FBE7D
:10008000CFEFD8E0DEBFCDBF11E0A0E0B1E0EEE7FA
:10009000FBE002C005900D92A830B107D9F721E02E
:1000A000A8E0B1E001C01D92A434B207E1F70E94BC
:1000B00066020C94BD050C940000249A08952C98B7
:1000C00008952C9A089520912801E22FF0E0EE0F78
:1000D000FF1FE85FFE4F918380832F5F203119F06F
:1000E0002093280102C010922801E8E0F1E080E0AE
:1000F00090E021913191820F931F21E0E832F207C5
:10010000C1F724E0969587952A95E1F708951F9207
:100110000F920FB60F9211242F933F934F935F933B
:100120006F937F938F939F93AF93BF93CF93DF93FF
:10013000EF93FF9380910001813011F520917800B9
:100140008091790090E0982F8827820F911D0E945E
:1001500063002EE0AC01249FC001259F900D112467
:10016000EC01C05BDA4FCC3D55E0D50718F40E9496
:100170005F0002C00E946100D0932B01C0932A014E
:1001800010922901FF91EF91DF91CF91BF91AF9133
:100190009F918F917F916F915F914F913F912F919F
:1001A0000F900FBE0F901F901895CF93DF93EFE73E
:1001B000F0E0808183608083EEE7F0E080818066FC
:1001C0008083EAE7F0E08081806880838081887F97
:1001D0008083808182608083ACE7B0E08C918F77F0
:1001E0008C938C9180648C93CBE7D0E08881806283
:1001F000888388818F7B88838C91807E85608C93B7
:100200008C918F7D8C9388818068888380818860C1
:100210008083DF91CF91089590912901911112C0AF
:1002200091E090932901813069F490917C00907E57
:10023000956090937C0090917A00906490937A00FE
:1002400080930001089580912A0190912B010895D7
:1002500090932B0180932A010895539808953B9A17
:10026000439A0895539A5B9A08953B9A4398089548
:10027000539A5B98089586E080936C0082E08093A7
:100280006B00E8E6F0E0808186608083089569B1C4
:1002900096B189B161FB442740F950E0440F551FE6
:1002A000440F551F82FB222720F930E0220F331F15
:1002B000242B96959170822F892B11F0873051F461
:1002C00090912E019A3030F480912D019F5F909390
:1002D0002E01089580932D0110922E0108951F92F2
:1002E0000F920FB60F9211242F933F934F935F936A
:1002F0006F937F938F939F93AF93BF93EF93FF93EE
:100300000E94BB020E940D04FF91EF91BF91AF913B
:100310009F918F917F916F915F914F913F912F911D
:100320000F900FBE0F901F9018951F920F920FB64F
:100330000F9211242F933F934F935F936F937F936B
:100340008F939F93AF93BF93EF93FF930E94BB0252
:100350000E940D04319902C080E007C080912C01F9
:10036000811102C00E945E0581E080932C01FF9103
:10037000EF91BF91AF919F918F917F916F915F911D
:100380004F913F912F910F900FBE0F901F90189596
:1003900088E080936A00E8E6F0E0808181608083F5
:1003A00008951F920F920FB60F9211248F9382E03F
:1003B000809302018F910F900FBE0F901F901895A0
:1003C000CF93DF93C3B1C3FBCC27C0F9DC2F80915F
:1003D0000101C817B1F00E947705853F914018F0E0
:1003E0000E945F00F8CF0E946100D11102C082E03C
:1003F00001C081E00E94B20280E00E94BE02C09370
:100400000101DF91CF9108950F931F93CF93DF9355
:100410000E947705EC010E9423018C010E94980242
:100420008130F9F4CE01801B910B89312CEF9207BA
:100430001CF00E94380117C0813328EF92071CF08E
:100440000E94380108C08934944F1CF00E94320188
:100450000AC00E943201DF91CF911F910F910C943D
:100460002F010E942D01DF91CF911F910F910C94CC
:100470003501809102018230C9F481E00E940C01B3
:100480000E949B0280912F019091300101969093E0
:10049000300180932F01833E9440B8F081E0809337
:1004A00002011092300110922F0108950E94E00184
:1004B0000E949802811107C00E9423018D3D954042
:1004C00010F00E94AD020C94040208950E94BB0338
:1004D0000E94D5000E94A3020E943B010E945D0081
:1004E0000E942B050E9443050E94C80186E089BD39
:1004F00009B400FEFDCF0E94610078940E9425059A
:10050000813039F480E00E9428050E9439020E945F
:10051000A6030E947705892B89F70E9498028130F3
:1005200069F786E90E94BE0286E90E940D04E6CFC3
:100530008091310108951092310180E090E00E9495
:1005400028010C945F000E949B0280E090E00E94D2
:10055000280180E090E00C947C0581E080933101DB
:100560000C946100813009F082E0809303010895CA
:100570008091030108958091380108958093380196
:1005800008950F931F93FC01869FA001879F500D34
:10059000969F500D1124052E000C660B770B809151
:1005A000390190913A01A0913B01B0913C01480F73
:1005B000591F6A1F7B1F4093390150933A01609382
:1005C0003B0170933C018091040190910501A09141
:1005D0000601B091070184179507A607B70744F4F1
:1005E0008093390190933A01A0933B01B0933C0171
:1005F000B095A095909581959F4FAF4FBF4F40917B
:10060000390150913A0160913B0170913C014817CA
:1006100059076A077B0744F48093390190933A01A4
:10062000A0933B01B0933C012091390130913A01F4
:1006300040913B0150913C01A3E0B0E00E94A30532
:100640008F01FF0F220B330B43E0000F111F221FFE
:10065000331F4A95D1F7DC01CB01800F911FA21FF8
:10066000B31FB7FD09C08093340190933501A09367
:100670003601B093370108C0109234011092350151
:10068000109236011092370180913401909135011A
:10069000A0913601B09137012EE0B595A7959795B9
:1006A00087952A95D1F78A569F4FAF4FBF4F8F3FFF
:1006B0009105A105B10509F054F486399105A1050C
:1006C000B1054CF486E990E0A0E0B0E004C08FEF03
:1006D00090E0A0E0B0E01F910F91089510923D01CD
:1006E00010923E0110923F01109240011092390188
:1006F00010923A0110923B0110923C0108950F9321
:100700001F93CF93DF938C010E9423018D3D954071
:1007100098F00E942301EC010E947705B8019E0128
:10072000281B390BC9010E94C10280933801DF9157
:10073000CF911F910F9108950E946E03109238017E
:10074000DF91CF911F910F910C949B028091320108
:100750009091330101969093330180933201883C4C
:10076000910540F081E090E00E947F0310923301F8
:1007700010923201089585B18C7385B940985898CC
:1007800084B1836C84B9389A509A8FE38093B60011
:100790001092A1001092A0001092A30081E080931B
:1007A000A2001092A5001092A4001092A70010922F
:1007B000A6001092A9008093A8001092AB0010929E
:1007C000AA001092AD001092AC001092AF0080937E
:1007D000AE001092B1001092B0001092B3009EEFE4
:1007E0009093B20094E19093B50098ED9093B80087
:1007F00028EF2093B9009093BA009FE09093BC003B
:100800001092BB008093B700089585B18C7385B9B1
:10081000409858981092B6000895CF93DF93D82F40
:100820000E949802811128C00E9405041092A10024
:100830001092A0001092A30081E08093A200109279
:10084000A5001092A4001092A7001092A60010928A
:10085000A9008093A8001092AB001092AA001092F9
:10086000AD001092AC001092AF008093AE001092D9
:10087000B1001092B000E6C08FE38093B6000E94F2
:100880004701C82F0E94B802813011F4C095C7708B
:1008900084E38093B500C33009F464C000F5C1302F
:1008A00009F43FC0C23009F0C8C01092A1001092F4
:1008B000A0001092A30081E08093A2001092A500F6
:1008C000D093A4001092A700D093A6001092A90084
:1008D0008093A8001092AB001092AA009CC0C53073
:1008E00009F480C008F464C0C63009F0A6C01092B4
:1008F000A1001092A0001092A30081E08093A200BA
:100900001092A500D093A4001092A7001092A60008
:100910001092A9008093A8001092AB001092AA0038
:100920007FC01092A100D093A0001092A300C093AA
:10093000A2001092A5001092A4001092A70010929D
:10094000A6001092A900C093A8001092AB001092CC
:10095000AA001092AD001092AC001092AF00C093AC
:10096000AE0021C01092A1001092A0001092A3002E
:1009700081E08093A2001092A5001092A400109232
:10098000A700D093A6001092A9008093A80010920F
:10099000AB001092AA001092AD001092AC00109221
:1009A000AF008093AE001092B100D093B00047C06A
:1009B0001092A1001092A0001092A30081E08093F9
:1009C000A2001092A5001092A4001092A70010920D
:1009D000A6001092A9008093A8001092AB00D093BB
:1009E000AA001EC01092A100D093A0001092A300F4
:1009F00081E08093A2001092A5001092A4001092B2
:100A0000A7001092A6001092A9008093A80010924F
:100A1000AB00D093AA001092AD001092AC0004C0BD
:100A20001092AD00D093AC001092AF008093AE0056
:100A30001092B1001092B00002C00E94050484E13F
:100A40008093B500DF91CF9108958091430108957F
:100A500080934301089582E084BD93E095BD97E0C3
:100A600097BD80936E0008951F920F920FB60F925C
:100A700011248F9381E0809343018F910F900FBEDB
:100A80000F901F9018951092800083E08093810052
:100A900081E080936F0008951F920F920FB60F921E
:100AA000112410928500109284001092420110923D
:100AB00041010F900FBE0F901F901895CF93DF93B9
:100AC000E4E8F0E0C081D181118210829E0140E013
:100AD00050E060EE70E782E790E00E94810530937D
:100AE000420120934101CE01DF91CF910895809181
:100AF00041019091420108959093420180934101F8
:100B00000895A1E21A2EAA1BBB1BFD010DC0AA1F4E
:100B1000BB1FEE1FFF1FA217B307E407F50720F066
:100B2000A21BB30BE40BF50B661F771F881F991FE1
:100B30001A9469F760957095809590959B01AC012A
:100B4000BD01CF0108950E94AE05A59F900DB49FF1
:100B5000900DA49F800D911D11240895A29FB001B6
:100B6000B39FC001A39F700D811D1124911DB29FE1
:0E0B7000700D811D1124911D0895F894FFCF82
:080B7E00010202020040150013
:00000001FF
