S0170000626C64635F73656E736F726C6573732E73726563C8
S11300000C943E000C945B000C945B000C945B001D
S11300100C945B000C945B000C945B000C945B00F0
S11300200C945B000C945B000C945B000C945B00E0
S11300300C9403020C945B000C945B000C945B0026
S11300400C945B000C9401010C945B000C945B0019
S11300500C945B000C945B000C945B000C94C70044
S11300600C947F000C945B000C945B000C941202C3
S11300700C945B000C945B000C945B0011241FBE79
S1130080CFEFD8E0DEBFCDBF11E0A0E0B1E0EAECF5
S1130090F7E002C005900D92A230B107D9F721E034
S11300A0A2E0B1E001C01D92A531B207E1F70E94C0
S11300B01A010C94E3030C940000249A08952C9ADA
S11300C008950C945F0080930501089580910501C3
S11300D00895809304010895809104010895809106
S11300E00301089580930301089589B126B199B15C
S11300F022709470922B86958170892B08951F929B
S11301000F920FB60F9211242F933F934F935F9347
S11301106F937F938F939F93AF93BF93EF93FF93CB
S11301200E9475000E949B02FF91EF91BF91AF91D5
S11301309F918F917F916F915F914F913F912F91FB
S11301400F900FBE0F901F90189586B52091060151
S113015030E0322F2227280F311D2115310511F4EB
S113016021E030E040E050E065E87FEC80E090E0A2
S11301700E9488032F3F31054105510511F00CF011
S11301802FEF2093040116BC1092060108951F92CC
S11301900F920FB60F9211242F933F934F935F93B7
S11301A06F937F938F939F93AF93BF93EF93FF933B
S11301B00E9475000E949B02319902C080E007C032
S11301C080910201811102C00E94A50081E0809308
S11301D00201FF91EF91BF91AF919F918F917F9118
S11301E06F915F914F913F912F910F900FBE0F90A0
S11301F01F90189514BC84E085BD81E080936E0047
S113020008951F920F920FB60F9211248F9316BC6C
S1130210809106018F5F843618F48093060104C030
S113022010920601109204018F910F900FBE0F904F
S11302301F9018950E9417030E94D70280910B010A
S11302408130F1F710920B010E9453028091070153
S11302509091080101968832910528F49093080141
S1130260809307010AC010920801109207010E94AE
S11302706F000E9463000E9451030E9425030E94A4
S11302808101DCCF1092A1001092A0001092A30073
S113029081E08093A2001092A5001092A400109215
S11302A0A7001092A6001092A9008093A8001092B3
S11302B0AB001092AA001092AD001092AC00109204
S11302C0AF008093AE001092B1001092B000109273
S11302D0B3008FEF8093B20084E18093B50088E986
S11302E08093B80098EF9093B9008093BA008FE0A0
S11302F08093BC0084E08093BB0081E28093B700CC
S11303000895E5EBF0E094E390831092A1008093CC
S1130310A0001092A30091E09093A2001092A50077
S11303208093A4001092A7008093A6001092A900C5
S11303309093A8001092AB008093AA001092AD0095
S11303408093AC001092AF009093AE001092B10075
S11303508093B00084E180830895109280008BE044
S11303608093810010928200109289008FE3809321
S1130370880082E080936F00089585B18C7385B9FD
S11303804098589883EC84B981E087B98AB90E946F
S11303905D000E94610083E080937F0080E680938B
S11303A07E0080917B008F7B80937B0080917B001B
S11303B0806280937B0080917C008F7380937C00AB
S11303C080EC80937C008AE880937A0080E88093B4
S11303D07B000E94FA000E94AD0184EC809394009B
S11303E095E8909395008093960086E080936C0046
S11303F092E090936B008093680089BD09B400FE7D
S1130400FDCF0C9442011F920F920FB60F9211244C
S11304108F9381E080930B018F910F900FBE0F900B
S11304201F9018951F920F920FB60F9211242F93BD
S11304303F934F935F936F937F938F939F93AF9368
S1130440BF93EF93FF9380917C00807E82618093C1
S11304507C0080910A01813021F4809179000E940E
S1130460720080910A01823059F4209178008091C1
S1130470790090E0982F8827820F911D0E94EF0247
S113048010920901FF91EF91BF91AF919F918F91CC
S11304907F916F915F914F913F912F910F900FBE7C
S11304A00F901F90189580910A01813009F118F07E
S11304B0823021F008951092090130C08091090121
S11304C081112FC091E09093090180917C0080629A
S11304D080937C0080917C00807E856080937C008A
S11304E080917A00806480937A0090930A01089541
S11304F090910901911115C08093090180917C00AC
S11305008F7D80937C0080917C00807E8F608093BF
S11305107C0080917A00806480937A0082E08093EA
S11305200A0108951092B6002F982E9828982998B9
S1130530409858980895CF93C82F0E94E9028823C1
S113054099F10E9425030E9481010E94EC028130EE
S113055071F4C33001F128F4C13009F1C230E9F07B
S113056023C0C530A1F0A8F0C63079F01DC0C33057
S113057081F028F4C13049F0C23049F015C0C530CB
S113058061F048F0C63059F00FC081E209C086E03E
S113059007C084E205C088E103C089E001C082E1AC
S11305A08093B600CF910895CF910C9492028091DC
S11305B0B70080FF0E94420110920C0181E08093F9
S11305C011010E9451030E9481010E9475000C9444
S11305D09B02809111010895809100010895FC010E
S11305E020910D0130910E0140910F0150911001A5
S11305F0AFE3B0E00E94A70326E0EE0FFF1F2A95A9
S1130600E1F7DC01CB018E0F9F1FA11DB11D36E068
S1130610B695A795979587953A95D1F780930D014F
S113062090930E01A0930F01B093100108950E94BE
S1130630BD0178941092110182E08093000180E062
S11306400E94630080E00C94690080911401089575
S11306502091120130911301820F931F8F3F910556
S113066019F014F08FEF90E090931301809312012E
S1130670809112019091130181309F4F34F481E0F5
S11306809FEF909313018093120180911201909136
S113069013012EE1AC01249FC001259F900D11246C
S11306A00895CF93DF930E946600C82F0E946C00C8
S11306B0CC0FD0E0C81BD109CE010E9428034EE123
S11306C04C9F90014D9F300D1124820F931F092ED2
S11306D0000CAA0BBB0B24E0B595A79597958795BD
S11306E02A95D1F78F3F9105A105B10514F08FEF3D
S11306F008C0181619061A061B061CF010921401DD
S113070002C08093140180911401DF91CF91089568
S1130710052E97FB1EF400940E949F0357FD07D0FB
S11307200E94B20307FC03D04EF40C949F0350952F
S11307304095309521953F4F4F4F5F4F08959095C9
S11307408095709561957F4F8F4F9F4F08950E94BC
S1130750D403A59F900DB49F900DA49F800D911D6F
S113076011240895A1E21A2EAA1BBB1BFD010DC082
S1130770AA1FBB1FEE1FFF1FA217B307E407F5074D
S113078020F0A21BB30BE40BF50B661F771F881F29
S1130790991F1A9469F760957095809590959B01BF
S11307A0AC01BD01CF010895A29FB001B39FC00168
S11307B0A39F700D811D1124911DB29F700D811D89
S10D07C01124911D0895F894FFCF51
S10507CA020027
S9030000FC
