:100000000C943E000C945B000C945B000C945B0021
:100010000C945B000C945B000C945B000C945B00F4
:100020000C945B000C945B000C945B000C945B00E4
:100030000C945B000C945B000C9408030C94F0028D
:100040000C945B000C945B000C945B000C945B00C4
:100050000C945B000C945B000C945B000C945701B7
:100060000C9431010C945B000C945B000C94BB006D
:100070000C945B000C945B000C945B0011241FBE7D
:10008000CFEFD8E0DEBFCDBF11E0A0E0B1E0E0E807
:10009000F6E002C005900D92A230B107D9F721E039
:1000A000A2E0B1E001C01D92A231B207E1F70E94C7
:1000B00084010C943E030C940000249A08952C9A19
:1000C0000895CF93DF9383E080937F0080E4809353
:1000D0007E00EAE7F0E0808180688083CCE7D0E0B2
:1000E000888180628883ABE7B0E08C9180688C93D4
:1000F0008081886080838C918F7B8C938C918062CF
:100100008C9388818F73888380EC88838AE88083CE
:1001100080E88C938081887F808380818260808367
:10012000DF91CF910895FC012091050130910601E6
:100130004091070150910801AFE3B0E00E94240311
:1001400026E0EE0FFF1F2A95E1F7DC01CB018E0FB1
:100150009F1FA11DB11D36E0B695A7959795879570
:100160003A95D1F78093050190930601A09307017A
:10017000B093080108951F920F920FB60F921124A9
:100180002F933F934F935F936F937F938F939F939F
:10019000AF93BF93EF93FF9380917C00807E826149
:1001A00080937C0080910301813029F48091790053
:1001B000809304010DC0823059F420917800809121
:1001C000790090E0982F8827820F911D0E9493005C
:1001D00010920201FF91EF91BF91AF919F918F918A
:1001E0007F916F915F914F913F912F910F900FBE33
:1001F0000F901F9018958091040108958093040139
:1002000008953B9A439A0895539A5B9A08954398A8
:1002100008955B98089586E080936C0092E0909337
:100220006B0080936800089599B186B129B1382F89
:100230003270822F8470832B96959170892B11F0E8
:10024000873051F490910A019A3030F4809109017D
:100250009F5F90930A0108958093090110920A010B
:1002600008951F920F920FB60F9211242F933F9370
:100270004F935F936F937F938F939F93AF93BF93AE
:10028000EF93FF930E9414010E94C101FF91EF912F
:10029000BF91AF919F918F917F916F915F914F919E
:1002A0003F912F910F900FBE0F901F9018951F92A6
:1002B0000F920FB60F9211242F933F934F935F939A
:1002C0006F937F938F939F93AF93BF93EF93FF931E
:1002D0000E9414010E94C101319B03C00E940101D0
:1002E00002C00E940701FF91EF91BF91AF919F91D2
:1002F0008F917F916F915F914F913F912F910F90CF
:100300000FBE0F901F9018950E9477020E94610007
:100310000E9400020E940B010E94AE010E945D003B
:100320000E94E7020E94FF0286E089BD09B400FE38
:10033000FDCF0E945F000E940C0278940E94E102AF
:10034000813049F40E94040180E00E94E4028FEFB2
:100350000E94B502F3CF0E940901F0CF85B18C73E2
:1003600085B94098589883EC84B981E087B98AB9F7
:1003700008951092B60085B18C7385B9409858984D
:100380000895CF93C82F0E94FD01882399F10E9400
:100390001F020E94B5020E941C02813071F4C3301A
:1003A00001F128F4C13009F1C230E9F023C0C530B1
:1003B000A1F0A8F0C63079F01DC0C33081F028F458
:1003C000C13049F0C23049F015C0C53061F048F085
:1003D000C63059F00FC081E209C086E007C084E250
:1003E00005C088E103C089E001C082E18093B600C6
:1003F000CF910895CF910C94B90180910B0108958C
:1004000010920B0182E08093000180E00E94FE00C8
:1004100080E090E00C941A038091B70080FF0E9466
:10042000770281E080930B010E944B020E94B5028B
:100430000E9414010C94C1018091000108958091E3
:100440000E01089520910C0130910D01820F931F30
:100450008F3F910519F014F08FEF90E090930D010C
:1004600080930C0180910C0190910D0181309F4F80
:1004700034F481E09FEF90930D0180930C01809103
:100480000C0190910D012EE1AC01249FC001259F2C
:10049000900D11240895CF93DF930E94FB00C82F85
:1004A0000E941F03D0E0C81BD90BCE010E9422027C
:1004B0004EE14C9F90014D9F300D1124820F931FF0
:1004C00024E0959587952A95E1F78F3F910514F0E3
:1004D0008FEF06C0181619061CF010920E0102C00C
:1004E00080930E0180910E01DF91CF9108951092BB
:1004F000A1001092A0001092A30081E08093A200BE
:100500001092A5001092A4001092A7001092A600CD
:100510001092A9008093A8001092AB001092AA003C
:100520001092AD001092AC001092AF008093AE001C
:100530001092B1001092B0001092B3008EEF809331
:10054000B20084E18093B50088ED8093B80098EF05
:100550009093B9008093BA008FE08093BC00109212
:10056000BB0083E28093B7000895E5EBF0E094E3ED
:1005700090831092A1008093A0001092A30091E0BC
:100580009093A2001092A5008093A4001092A7005F
:100590008093A6001092A9009093A8001092AB003F
:1005A0008093AA001092AD008093AC001092AF002F
:1005B0009093AE001092B1008093B00084E18083EC
:1005C000089580911101089580931101089582E0AA
:1005D00084BD93E095BD97E097BD80936E0008952C
:1005E0001F920F920FB60F9211248F9381E0809388
:1005F00011018F910F900FBE0F901F9018951092C0
:10060000800084E08093810081E080936F000895F2
:100610001F920F920FB60F92112410928500109224
:1006200084001092100110920F010F900FBE0F90D6
:100630001F9018959093100180930F010895809159
:100640000F019091100108950E942F03A59F900D16
:10065000B49F900DA49F800D911D11240895A29F19
:10066000B001B39FC001A39F700D811D1124911D86
:10067000B29F700D811D1124911D0895F894FFCF34
:02068000020076
:00000001FF
