:100000000C943E000C945B000C945B000C945B0021
:100010000C945B000C945B000C945B000C945B00F4
:100020000C945B000C945B000C945B000C945B00E4
:100030000C942E020C945B000C945B000C945B00FF
:100040000C945B000C9426010C945B000C945B00F8
:100050000C945B000C945B000C945B000C94EC0023
:100060000C94A9000C945B000C945B000C943D0272
:100070000C945B000C945B000C945B0011241FBE7D
:10008000CFEFD8E0DEBFCDBF11E0A0E0B1E0E0EF00
:10009000F7E002C005900D92A230B107D9F721E038
:1000A000A2E0B1E001C01D92A731B207E1F70E94C2
:1000B00041010C94F6030C940000249A08952C9AA4
:1000C00008950C945F00EAE7F0E080818068808307
:1000D000ACE7B0E08C9180628C93ABE7B0E08C91A0
:1000E00080688C938081886080838081887F808312
:1000F00080818260808308958091070108958093B4
:100100000701089590930601809305010895809159
:10011000050190910601089599B186B129B1382F52
:100120003270822F8470832B96959170892B11F0F9
:10013000873051F4909104019A3030F4809103019A
:100140009F5F90930401089580930301109204012E
:1001500008951F920F920FB60F9211242F933F9381
:100160004F935F936F937F938F939F93AF93BF93BF
:10017000EF93FF930E948C000E94C902FF91EF91C0
:10018000BF91AF919F918F917F916F915F914F91AF
:100190003F912F910F900FBE0F901F90189586B52D
:1001A0002091080130E0322F2227280F311D211520
:1001B000310511F421E030E040E050E065E87FECEB
:1001C00080E090E00E949B0330930601209305019C
:1001D00016BC1092080108951F920F920FB60F924D
:1001E00011242F933F934F935F936F937F938F933C
:1001F0009F93AF93BF93EF93FF930E948C000E9455
:10020000C902319902C080E007C0809102018111CA
:1002100002C00E94CF0081E080930201FF91EF9124
:10022000BF91AF919F918F917F916F915F914F910E
:100230003F912F910F900FBE0F901F90189514BCF7
:1002400084E085BD81E080936E0008951F920F9237
:100250000FB60F9211248F9316BC809108018F5F07
:10026000843618F48093080106C010920801109299
:100270000601109205018F910F900FBE0F901F90F5
:1002800018950E9445030E9405030E946501813074
:10029000E1F780E00E9468010E947E0280910901DE
:1002A00090910A0101968832910528F490930A01F1
:1002B0008093090106C010920A01109209010E9460
:1002C00077038FEF0E94AA01E0CF80910D0108957E
:1002D00080930D0108951092A1001092A000109239
:1002E000A30081E08093A2001092A5001092A400C8
:1002F0001092A7001092A6001092A9008093A80067
:100300001092AB001092AA001092AD001092AC00B7
:100310001092AF008093AE001092B1001092B00026
:100320001092B3008FEF8093B2008CE18093B50000
:1003300088E98093B80098EF9093B9008093BA0051
:100340008FE08093BC0084E08093BB0081E28093C7
:10035000B7000895E5EBF0E09CE390831092A100D4
:100360008093A0001092A30091E09093A2001092BD
:10037000A5001092A4001092A7008093A6001092EE
:10038000A9009093A8001092AB001092AA001092BE
:10039000AD008093AC001092AF009093AE0010922D
:1003A000B1001092B0008CE180830895109280001B
:1003B0008BE08093810010928200109289008FE37D
:1003C0008093880082E080936F00089585B18C73DC
:1003D00085B94098589883EC84B981E087B98AB987
:1003E0000E945D000E94610083E080937F0080E6B0
:1003F00080937E0080917B008F7B80937B00809137
:100400007B00806280937B0080917C008F7380935F
:100410007C000E94630080EC80937C008AE88093DB
:100420007A0080E880937B000E941F010E94D60121
:1004300084EC8093940095E89093950080939600C7
:1004400086E080936C0092E090936B00809368004C
:1004500089BD09B400FEFDCF0C946B011F920F9271
:100460000FB60F9211248F9381E080930D018F912D
:100470000F900FBE0F901F9018951F920F920FB6FE
:100480000F9211242F933F934F935F936F937F931A
:100490008F939F93AF93BF93EF93FF9380917C00D3
:1004A000807E826180937C0080910C01813021F4F8
:1004B000809179000E947F0080910C01823059F474
:1004C000209178008091790090E0982F8827820F02
:1004D000911D0E941D0310920B01FF91EF91BF919E
:1004E000AF919F918F917F916F915F914F913F91CC
:1004F0002F910F900FBE0F901F9018950E9496039A
:1005000080910C01813009F118F0823021F036C061
:1005100010920B0130C080910B0181112FC091E02E
:1005200090930B0180917C00806280937C0080918D
:100530007C00807E856080937C0080917A0080645E
:1005400080937A0090930C0119C090910B01911146
:1005500015C080930B0180917C008F7D80937C007F
:1005600080917C00807E8F6080937C0080917A00F7
:10057000806480937A0082E080930C010C9499034C
:100580001092B6002F982E9828982998409858983D
:100590000895CF93C82F0E941703882399F10E94D2
:1005A00054030E94AA010E941A03813071F4C330DF
:1005B00001F128F4C13009F1C230E9F023C0C5309F
:1005C000A1F0A8F0C63079F01DC0C33081F028F446
:1005D000C13049F0C23049F015C0C53061F048F073
:1005E000C63059F00FC081E209C086E007C084E23E
:1005F00005C088E103C089E001C082E18093B600B4
:10060000CF910895CF910C94C0028091B70080FFE4
:100610000E946B0110920E0181E0809313010E94F1
:1006200077030E94AA010E948C000C94C902809159
:1006300013010895809100010895FC0120910F019C
:10064000309110014091110150911201AFE3B0E0DF
:100650000E94BA0326E0EE0FFF1F2A95E1F7DC01A6
:10066000CB018E0F9F1FA11DB11D36E0B695A7953A
:10067000979587953A95D1F780930F019093100144
:10068000A0931101B093120108950E94E60178949D
:100690001092130182E08093000180E00E947F00AD
:1006A00080E090E00C9482008091160108952091E2
:1006B000140130911501820F931F8F3F910519F09E
:1006C00010F08FEF90E090931501809314018091CA
:1006D00014019091150181309F4F30F481E09FEF1C
:1006E000909315018093140180E090E00895CF93DA
:1006F000DF930E947C00C82F0E948700D0E0C81BB7
:10070000D90BCE010E945703CF3FD10510F08FEFD8
:1007100006C0209719F41092160103C08C2F809305
:10072000160180911601DF91CF910895539A5B9A3B
:1007300008955B980895052E97FB1EF400940E947F
:10074000B20357FD07D00E94C50307FC03D04EF447
:100750000C94B20350954095309521953F4F4F4FE3
:100760005F4F089590958095709561957F4F8F4F5D
:100770009F4F08950E94E703A59F900DB49F900D91
:10078000A49F800D911D11240895A1E21A2EAA1B89
:10079000BB1BFD010DC0AA1FBB1FEE1FFF1FA21731
:1007A000B307E407F50720F0A21BB30BE40BF50B2E
:1007B000661F771F881F991F1A9469F760957095B7
:1007C000809590959B01AC01BD01CF010895A29F3A
:1007D000B001B39FC001A39F700D811D1124911D15
:1007E000B29F700D811D1124911D0895F894FFCFC3
:0207F000020005
:00000001FF
