S0170000626C64635F73656E736F726C6573732E73726563C8
S11300000C943E000C945B000C945B000C945B001D
S11300100C945B000C945B000C945B000C945B00F0
S11300200C945B000C945B000C945B000C945B00E0
S11300300C945B000C945B000C94D4030C94BC03F0
S11300400C945B000C945B000C945B000C945B00C0
S11300500C945B000C945B000C945B000C947E018C
S11300600C9458010C945B000C945B000C94790084
S11300700C945B000C945B000C945B0011241FBE79
S1130080CFEFD8E0DEBFCDBF11E0A0E0B1E0EEE4F9
S1130090F8E002C005900D92A230B107D9F721E033
S11300A0A2E0B1E001C01D92A331B207E1F70E94C2
S11300B0B1010C9425040C940000249A08952C9A00
S11300C008958A30910528F41092030110920201D8
S11300D00BC020910201309103012817390720F445
S11300E09093030180930201809102019091030196
S11300F008951F920F920FB60F9211242F933F93DE
S11301004F935F936F937F938F939F93AF93BF931B
S1130110CF93DF93EF93FF9380910001813051F5EA
S1130120209178008091790090E0982F8827820FA1
S1130130911D0E9461002EE0AC01249FC001259F07
S1130140900D1124EC01C05BDA4FD0930601C093EB
S11301500501CD345DE1D50718F00E94280108C0DF
S11301600E942E01C03DD74018F40E942B0102C00A
S11301700E94300110920401FF91EF91DF91CF9121
S1130180BF91AF919F918F917F916F915F914F91AB
S11301903F912F910F900FBE0F901F901895CF9302
S11301A0DF93EFE7F0E0808183608083EEE7F0E0A7
S11301B0808180668083EAE7F0E0808180688083C4
S11301C08081887F8083808182608083ACE7B0E017
S11301D08C918F778C938C9180648C93CBE7D0E057
S11301E088818062888388818F7B88838C91807EDC
S11301F085608C938C918F7D8C93888180688883B3
S1130200808188608083DF91CF910895909100016F
S1130210913099F48091040181110FC090930401ED
S113022080917C00807E856080937C0080917A0040
S1130230806480937A009093000108958091050171
S11302409091060108959093060180930501089505
S11302503B9A439A0895539A5B9A08954398089554
S11302605B98089586E080936C0092E090936B0015
S113027080936800089599B186B129B1382F3270FE
S1130280822F8470832B96959170892B11F087307F
S113029051F4909109019A3030F4809108019F5FE4
S11302A0909309010895809308011092090108951B
S11302B01F920F920FB60F9211242F933F934F93D7
S11302C05F936F937F938F939F93AF93BF93EF93BA
S11302D0FF930E94FA010E949802FF91EF91BF914F
S11302E0AF919F918F917F916F915F914F913F91CA
S11302F02F910F900FBE0F901F9018951F920F9281
S11303000FB60F9211242F933F934F935F936F93E4
S11303107F938F939F93AF93BF93EF93FF930E9429
S1130320FA010E949802319902C080E007C08091CE
S11303300701811102C00E94E60381E08093070156
S1130340FF91EF91BF91AF919F918F917F916F91A9
S11303505F914F913F912F910F900FBE0F901F907F
S113036018950E9447020E94CF000E94E0010E945B
S113037032010E945D000E94B3030E94CB0386E019
S113038089BD09B400FEFDCF0E945F000E94ED010B
S113039078940E942B010E9430010E9428010E943F
S11303A02E010E94AD038130E1F780E00E94B0038A
S11303B00E9406010E943402F4CF80910A0108953C
S11303C010920A0182E08093010180E090E00E9493
S11303D0230180E090E00C94FE0381E080930A0105
S11303E08FEF0E94FD010E94FA010C949802809103
S11303F00101089580910F01089580930F010895DC
S1130400CF93DF930E94F903EC010E941E01C81BE5
S1130410D90B20910D0130910E011C161D061CF400
S11304202150310902C02F5F3F4F30930E012093BA
S11304300D0180910D0190910E018F3F910521F0E6
S11304401CF08FEF90E005C08436910534F484E607
S113045090E090930E0180930D0180910D018093A3
S11304600F01DF91CF91089580910B0190910C01C0
S1130470809690930C0180930B018115984230F083
S11304800E94000210920C0110920B01089585B194
S11304908C7385B94098589883EC84B981E087B906
S11304A08AB99FE39093B6001092A1001092A00025
S11304B01092A3008093A2001092A5001092A400B1
S11304C01092A7001092A6001092A9008093A80091
S11304D01092AB001092AA001092AD001092AC00E2
S11304E01092AF008093AE001092B1001092B00051
S11304F01092B3009EEF9093B20094E19093B500F4
S113050098ED9093B80028EF2093B9009093BA0027
S11305109FE09093BC001092BB008093B7000895B5
S113052085B18C7385B9409858981092B600089597
S1130530CF93DF93D82F0E94DD01811128C00E9440
S113054090021092A1001092A0001092A30081E0EA
S11305508093A2001092A5001092A4001092A7000C
S11305601092A6001092A9008093A8001092AB00EC
S11305701092AA001092AD001092AC001092AF003D
S11305808093AE001092B1001092B000E3C08FE3EC
S11305908093B6000E943B01C82F0E94F70181306E
S11305A011F4C095C77084E38093B500C33009F497
S11305B064C000F5C13009F43FC0C23009F0C7C0BF
S11305C01092A1001092A0001092A30081E08093E9
S11305D0A2001092A500D093A4001092A700D0937B
S11305E0A6001092A9008093A8001092AB0010926C
S11305F0AA009CC0C53009F480C008F464C0C630A9
S113060009F0A5C01092A1001092A0001092A300BE
S113061081E08093A2001092A500D093A4001092D0
S1130620A7001092A6001092A9008093A80010922F
S1130630AB001092AA007FC01092A100D093A0003A
S11306401092A300C093A2001092A5001092A400DF
S11306501092A7001092A6001092A900C093A800BF
S11306601092AB001092AA001092AD001092AC0050
S11306701092AF00C093AE0021C01092A10010925E
S1130680A0001092A30081E08093A2001092A50024
S11306901092A4001092A700D093A6001092A90073
S11306A08093A8001092AB001092AA001092AD00A3
S11306B01092AC001092AF008093AE001092B10083
S11306C0D093B00044C01092A1001092A0001092E8
S11306D0A30081E08093A2001092A5001092A400D0
S11306E01092A7001092A6001092A9008093A8006F
S11306F01092AB00D093AA001EC01092A100D09318
S1130700A0001092A30081E08093A2001092A500A3
S11307101092A4001092A7001092A6001092A900B3
S11307208093A8001092AB00D093AA001092AD0061
S11307301092AC0004C01092AD00D093AC001092A3
S1130740AF008093AE001092B1001092B00084E12B
S11307508093B500DF91CF9108958091120108959F
S113076080931201089582E084BD93E095BD97E0E3
S113077097BD80936E0008951F920F920FB60F924B
S113078011248F9381E0809312018F910F900FBEFB
S11307900F901F9018951092800083E08093810041
S11307A081E080936F0008951F920F920FB60F920D
S11307B0112410928500109284001092110110925D
S11307C010010F900FBE0F901F901895E4E8F0E011
S11307D0208131811182108240E050E060EE70E7A8
S11307E082E790E00E9403043093110120931001EA
S11307F00895809110019091110108959093110131
S1130800809310010895A1E21A2EAA1BBB1BFD01BF
S11308100DC0AA1FBB1FEE1FFF1FA217B307E407DB
S1130820F50720F0A21BB30BE40BF50B661F771F33
S1130830881F991F1A9469F7609570958095909513
S11108409B01AC01BD01CF010895F894FFCFD8
S105084E0102A1
S9030000FC
