S0170000626C64635F73656E736F726C6573732E73726563C8
S11300000C943E000C945B000C945B000C945B001D
S11300100C945B000C945B000C945B000C945B00F0
S11300200C945B000C945B000C945B000C945B00E0
S11300300C945B000C945B000C94EF020C94D702BC
S11300400C945B000C945B000C945B000C945B00C0
S11300500C945B000C945B000C945B000C943B01CF
S11300600C9415010C945B000C945B000C946100DF
S11300700C945B000C945B000C945B0011241FBE79
S1130080CFEFD8E0DEBFCDBF11E0A0E0B1E0E6E9FC
S1130090F6E002C005900D92A230B107D9F721E035
S11300A0A2E0B1E001C01D92AF30B207E1F70E94B7
S11300B06E010C9449030C940000249A08952C9A20
S11300C008951F920F920FB60F9211242F933F930E
S11300D04F938F939F93809100018130B1F42091CD
S11300E078008091790090E0982F8827820F911DE5
S11300F04EE0489F9001499F300D1124C901805B57
S11301009A4F9093040180930301109202019F91EE
S11301108F914F913F912F910F900FBE0F901F9091
S11301201895CF93DF93EFE7F0E0808183608083BD
S1130130EEE7F0E0808180668083EAE7F0E080818A
S1130140806880838081887F8083808182608083CF
S1130150ACE7B0E08C918F778C938C9180648C9316
S1130160CBE7D0E088818062888388818F7B888315
S11301708C91807E85608C938C918F7D8C9388810B
S113018080688883808188608083DF91CF9108951F
S113019090910001913099F48091020181110FC076
S11301A09093020180917C00807E856080937C0026
S11301B080917A00806480937A009093000108957E
S11301C08091030190910401089590930401809318
S11301D003010895539A5B9A08955B98089586E005
S11301E080936C0092E090936B0080936800089574
S11301F099B186B129B1382F3270822F8470832B44
S113020096959170892B11F0873051F490910701E4
S11302109A3030F4809106019F5F9093070108950E
S1130220809306011092070108951F920F920FB652
S11302300F9211242F933F934F935F936F937F9368
S11302408F939F93AF93BF93EF93FF930E94F80014
S11302500E94A801FF91EF91BF91AF919F918F915F
S11302607F916F915F914F913F912F910F900FBEAE
S11302700F901F9018951F920F920FB60F92112492
S11302802F933F934F935F936F937F938F939F939A
S1130290AF93BF93EF93FF930E94F8000E94A801CD
S11302A0319902C080E007C080910501811102C02C
S11302B00E94010381E080930501FF91EF91BF91BA
S11302C0AF919F918F917F916F915F914F913F91EA
S11302D02F910F900FBE0F901F9018950E945E02F1
S11302E00E9491000E94E7010E94EF000E94950184
S11302F00E945D000E94CE020E94E60286E089BD53
S113030009B400FEFDCF0E945F000E94F4017894BE
S11303100E94C8028130E1F780E00E94CB020E9473
S1130320C8008FEF0E949C02F3CF85B18C7385B90E
S11303304098589883EC84B981E087B98AB90895C4
S11303401092B60085B18C7385B940985898089579
S1130350CF93C82F0E94E401882399F10E940702D9
S11303600E949C020E940402813071F4C33001F1A6
S113037028F4C13009F1C230E9F023C0C530A1F03E
S1130380A8F0C63079F01DC0C33081F028F4C13024
S113039049F0C23049F015C0C53061F048F0C630AC
S11303A059F00FC081E209C086E007C084E205C0AD
S11303B088E103C089E001C082E18093B600CF9157
S11303C00895CF910C94A001809108010895109292
S11303D0080182E08093010180E090E00E94E50042
S11303E080E090E00C9422038091B70080FF0E948B
S11303F05E0281E0809308010E9433020E949C0205
S11304000E94F8000C94A801809101010895809144
S11304100B0108952091090130910A01820F931F65
S11304208F3F910519F014F08FEF90E090930A013B
S1130430809309018091090190910A0181309F4FB5
S113044034F481E09FEF90930A0180930901809135
S1130450090190910A012EE1AC01249FC001259F5E
S1130460900D11240895CF93DF930E94E000EC01D6
S11304700E941D03C81BD90BCE010E940A024EE143
S11304804C9F90014D9F300D1124820F931F24E047
S1130490959587952A95E1F78F3F910514F08FEF95
S11304A006C0181619061CF010920B0102C08093A6
S11304B00B0180910B01DF91CF9108951092A1005F
S11304C01092A0001092A30081E08093A2001092E9
S11304D0A5001092A4001092A7001092A6001092FA
S11304E0A9008093A8001092AB001092AA00109269
S11304F0AD001092AC001092AF008093AE00109249
S1130500B1001092B0001092B3008EEF8093B2004D
S113051084E18093B50088ED8093B80098EF9093C0
S1130520B9008093BA008FE08093BC001092BB00A6
S113053081E28093B7000895E5EBF0E094E39083C3
S11305401092A1008093A0001092A30091E09093D8
S1130550A2001092A5008093A4001092A70080939B
S1130560A6001092A9009093A8001092AB0080936B
S1130570AA001092AD008093AC001092AF0090934B
S1130580AE001092B1008093B00084E1808308959E
S113059080910E01089580930E01089582E084BD38
S11305A093E095BD97E097BD80936E0008951F92E8
S11305B00F920FB60F9211248F9381E080930E0156
S11305C08F910F900FBE0F901F901895109280007E
S11305D083E08093810081E080936F0008951F92EF
S11305E00F920FB60F92112410928500109284007E
S11305F010920D0110920C010F900FBE0F901F90DE
S11306001895CF93DF93E4E8F0E0C081D1811182A3
S113061010820E94EA000E94ED009E0140E050E03A
S113062060EE70E782E790E00E94270330930D01AB
S113063020930C01DF91CF91089580910C0190914A
S11306400D01089590930D0180930C010895A1E28A
S11306501A2EAA1BBB1BFD010DC0AA1FBB1FEE1F38
S1130660FF1FA217B307E407F50720F0A21BB30B83
S1130670E40BF50B661F771F881F991F1A9469F7FF
S113068060957095809590959B01AC01BD01CF015B
S10906900895F894FFCF69
S105069601025B
S9030000FC
