:100000000C943E000C945B000C945B000C945B0021
:100010000C945B000C945B000C945B000C945B00F4
:100020000C945B000C945B000C945B000C945B00E4
:100030000C945B000C945B000C94C0030C94A8031C
:100040000C945B000C945B000C945B000C945B00C4
:100050000C945B000C945B000C945B000C946201AC
:100060000C943C010C945B000C945B000C946100BC
:100070000C945B000C945B000C945B0011241FBE7D
:10008000CFEFD8E0DEBFCDBF11E0A0E0B1E0E6E207
:10009000F8E002C005900D92A230B107D9F721E037
:1000A000A2E0B1E001C01D92A131B207E1F70E94C8
:1000B00095010C9411040C940000249A08952C9A34
:1000C00008951F920F920FB60F9211242F933F9312
:1000D0004F935F936F937F938F939F93AF93BF9350
:1000E000CF93DF93EF93FF9380910001813031F53F
:1000F000209178008091790090E0982F8827820FD6
:10010000911D2EE0289FE001299FD00D1124C05B96
:10011000DA4FD0930401C0930301CD348DE1D807A9
:1001200018F00E940C0108C00E941201C03DD74087
:1001300018F40E940F0102C00E94140110920201E3
:10014000FF91EF91DF91CF91BF91AF919F918F91EF
:100150007F916F915F914F913F912F910F900FBEC3
:100160000F901F901895CF93DF93EFE7F0E0808119
:1001700083608083EEE7F0E0808180668083EAE739
:10018000F0E08081806880838081887F80838081A7
:1001900082608083ACE7B0E08C918F778C938C91F8
:1001A00080648C93CBE7D0E08881806288838881EB
:1001B0008F7B88838C91807E85608C938C918F7DE2
:1001C0008C93888180688883808188608083DF91B8
:1001D000CF91089590910001913099F4809102019E
:1001E00081110FC09093020180917C00807E856018
:1001F00080937C0080917A00806480937A00909351
:100200000001089580910301909104010895909355
:1002100004018093030108953B9A439A0895539AE9
:100220005B9A0895439808955B98089586E08093BB
:100230006C0092E090936B0080936800089599B1F0
:1002400086B129B1382F3270822F8470832B969516
:100250009170892B11F0873051F4909107019A30F9
:1002600030F4809106019F5F909307010895809379
:1002700006011092070108951F920F920FB60F9278
:1002800011242F933F934F935F936F937F938F939B
:100290009F93AF93BF93EF93FF930E94DE010E9461
:1002A0008402FF91EF91BF91AF919F918F917F91C8
:1002B0006F915F914F913F912F910F900FBE0F90D3
:1002C0001F9018951F920F920FB60F9211242F9323
:1002D0003F934F935F936F937F938F939F93AF93CE
:1002E000BF93EF93FF930E94DE010E948402319935
:1002F00002C080E007C080910501811102C00E9408
:10030000D20381E080930501FF91EF91BF91AF91FE
:100310009F918F917F916F915F914F913F912F911D
:100320000F900FBE0F901F9018950E9432020E94EE
:10033000B3000E94C4010E9416010E945D000E9449
:100340009F030E94B70386E089BD09B400FEFDCF7C
:100350000E945F000E94D10178940E940F010E94C8
:1003600014010E940C010E9412010E949903813025
:10037000E1F780E00E949C030E94EA000E941F02B5
:10038000F4CF8091080108951092080182E08093D3
:10039000010180E090E00E94070180E090E00C9471
:1003A000EA0381E0809308018FEF0E94E1010E943F
:1003B000DE010C94840280910101089580910D0169
:1003C000089580930D010895CF93DF930E94E50374
:1003D000EC010E940201AE0160E070E0481B590B85
:1003E0006109710920910B0130910C011416150659
:1003F000160617061CF42150310902C02F5F3F4F2B
:1004000030930C0120930B0180910B0190910C0112
:100410008F3F910521F01CF08FEF90E005C08F3ADF
:10042000910534F48FEA90E090930C0180930B01D6
:1004300080910B0180930D01DF91CF910895809100
:10044000090190910A01809690930A018093090115
:100450008115984230F00E94E40110920A01109236
:100460000901089585B18C7385B94098589883EC3B
:1004700084B981E087B98AB99FE39093B60010925E
:10048000A1001092A0001092A3008093A2001092ED
:10049000A5001092A4001092A7001092A60010923E
:1004A000A9008093A8001092AB001092AA001092AD
:1004B000AD001092AC001092AF008093AE0010928D
:1004C000B1001092B0001092B3008EEF8093B20092
:1004D00084E18093B50088ED8093B80098EF909305
:1004E000B9008093BA008FE08093BC001092BB00EB
:1004F00081E28093B700089585B18C7385B94098E7
:1005000058981092B6000895CF93DF93D82F0E9489
:10051000C101811128C00E947C021092A10010929A
:10052000A0001092A30081E08093A2001092A50089
:100530001092A4001092A7001092A6001092A90099
:100540008093A8001092AB001092AA001092AD0008
:100550001092AC001092AF008093AE001092B100E8
:100560001092B000E3C08FE38093B6000E941F0199
:10057000C82F0E94DB01813011F4C095C77084E35D
:100580008093B500C33009F464C000F5C13009F4AC
:100590003FC0C23009F0C7C01092A1001092A00065
:1005A0001092A30081E08093A2001092A500D09346
:1005B000A4001092A700D093A6001092A9008093E7
:1005C000A8001092AB001092AA009CC0C53009F49C
:1005D00080C008F464C0C63009F0A5C01092A10024
:1005E0001092A0001092A30081E08093A2001092CC
:1005F000A500D093A4001092A7001092A60010921C
:10060000A9008093A8001092AB001092AA007FC0AE
:100610001092A100D093A0001092A300C093A2005A
:100620001092A5001092A4001092A7001092A600AC
:100630001092A900C093A8001092AB001092AA00DB
:100640001092AD001092AC001092AF00C093AE00BB
:1006500021C01092A1001092A0001092A30081E08E
:100660008093A2001092A5001092A4001092A700FF
:10067000D093A6001092A9008093A8001092AB001E
:100680001092AA001092AD001092AC001092AF0030
:100690008093AE001092B100D093B00044C010928D
:1006A000A1001092A0001092A30081E08093A2000C
:1006B0001092A5001092A4001092A7001092A6001C
:1006C0001092A9008093A8001092AB00D093AA00CA
:1006D0001EC01092A100D093A0001092A30081E050
:1006E0008093A2001092A5001092A4001092A7007F
:1006F0001092A6001092A9008093A8001092AB005F
:10070000D093AA001092AD001092AC0004C01092D9
:10071000AD00D093AC001092AF008093AE00109269
:10072000B1001092B00084E18093B500DF91CF91C9
:10073000089580911001089580931001089582E03A
:1007400084BD93E095BD97E097BD80936E000895BA
:100750001F920F920FB60F9211248F9381E0809316
:1007600010018F910F900FBE0F901F90189510924F
:10077000800083E08093810081E080936F00089582
:100780001F920F920FB60F921124109285001092B3
:10079000840010920F0110920E010F900FBE0F9067
:1007A0001F901895E4E8F0E02081318111821082D9
:1007B00040E050E060EE70E782E790E00E94EF03D7
:1007C00030930F0120930E01089580910E019091B6
:1007D0000F01089590930F0180930E010895A1E2F7
:1007E0001A2EAA1BBB1BFD010DC0AA1FBB1FEE1FAB
:1007F000FF1FA217B307E407F50720F0A21BB30BF6
:10080000E40BF50B661F771F881F991F1A9469F771
:1008100060957095809590959B01AC01BD01CF01CD
:060820000895F894FFCFDB
:020826000102CD
:00000001FF
